S00F0000537065637472416E2E733337C5
S1130000001000200929000085830000858300007A
S113001085830000858300008583000085830000BC
S113002085830000858300008583000085830000AC
S1130030858300008583000085830000858300009C
S1130040858300008583000085830000858300008C
S1130050858300008583000085830000858300007C
S1130060858300008583000085830000858300006C
S1130070858300008583000085830000FD2800003F
S1130080CF82000085830000858300008583000003
S11300908583000091310000858300008583000082
S11300A0858300008583000085830000858300002C
S11300B0858300008583000085830000858300001C
S11300C0858300008583000085830000858300000C
S11300D085830000858300008583000085830000FC
S11300E085830000858300008583000085830000EC
S11300F085830000858300008583000085830000DC
S113010085830000858300008583000085830000CB
S113011085830000858300008583000085830000BB
S113012085830000858300008583000085830000AB
S1130130858300008583000085830000858300009B
S1130140013800D0FCE770472DE9F84F0FF2C80BD7
S1130150DBE900AB00242E4D204607F079F924A3F7
S1130160D3E900238046894607F0DCF952465B4612
S113017007F002FB41EC100B00F09AFC1EA3D3E93C
S113018000234046494657EC106B07F0CBF9524622
S11301905B4607F0F1FA41EC100B00F089FC0022F9
S11301A0304639461B4B59EC108B07F0BBF902461D
S11301B00B4613A1D1E9000106F0FCFF12A3D3E919
S11301C0002306460F464046494607F0ABF902466F
S11301D00B463046394606F0EFFF07F085FC013444
S11301E0B4F5806F45F8040BB6D1BDE8F88F00BFB5
S11301F0112D4454FB211940112D4454FB21294055
S1130200E17A14AE47E1DA3F7B14AE47E17AB43FBA
S1130210FC4000200000E03F0000000000F88F4098
S11302202DE9F0470FF24409D9E9008911A7D7E96C
S113023000670024DFF844A00B4D5AF8040B07F0C4
S113024007F942464B4606F0B5FF32463B4607F0F7
S113025093FA07F049FC0134B4F5806F45F8080BB4
S1130260EBD1BDE8F08700BFBC200020CDCCCCCCC6
S1130270CCCC31400000000000FC9F40FC5000202A
S113028008B510EE100A07F0F5F809A3D3E9002326
S113029007F072FA07F028FC00EE100A07F03CFEA3
S11302A0F3EE047A20EE270A08BD00BFAFF3008006
S11302B0E17A14AE47E16A402DE9F04F2DED068B4B
S11302C083B00FF2C009D9E90089019100219FEDA3
S11302D0288A8246084602F011F940230024B4EE2D
S11302E0009ADFED249AF0EE0C8A4FF0010BB0EE89
S11302F048AA214D2B70019B9C420BDB81231F4993
S11303001F484D600B8103B0BDEC068BBDE8F04F78
S113031002F0F4BC3AF9140007F09AF842464B464E
S113032006F048FF064618EE100A0F4607F0A2F83A
S11303300B4602463946304606F03EFF07F0D4FB32
S11303400134630708EE100AD5D128EE098AF0EECD
S1130350687A88EE297A47EE287AFDEEE77A17EE76
S1130360903AE2100BFA03F3B0EE4A8AAB54C2E7B8
S11303700000000000E0FF445673002020610020CC
S113038000800650CDCCCCCCCCCC31400000000059
S11303902DE9F04F2DED088B8DB09DED1E7B09EE00
S11303A0903ADDE920430A93229B09EE100A8A461B
S11303B00792069351EC170B53EC172BB0EE478AB8
S11303C0F0EE678A07F016FB80B14FF0FF3251EC74
S11303D0180BCF4B07F036FB40B94FF0FF326FF4E8
S11303E0801351EC180B07F00FFB98B1069B514694
S11303F022930A9B19EE100ACDE9204319EE903A94
S1130400079A8DED1E8B0DB0BDEC088BBDE8F04F47
S113041000F0A2B90022002351EC180B07F0F4FA03
S1130420002800F0448118EE903A18EE108A03F187
S11304300049069BC9F30A5013F48063A0F2FF300D
S113044008BF06240B9307F003F8A1A3D3E9002304
S113045007F068F8A0A3D3E9002306F0ADFEC9F3C2
S113046013050F4645F07F5106460022A94B40462E
S113047041F4401106F09EFE99A3D3E9002307F04E
S113048051F802460B463046394606F095FE07F011
S1130490E3FA834606F0DCFF93A3D3E90023064680
S11304A00F4607F03FF800229B4B06F085FE07F04D
S11304B0D3FA8FA3D3E9002305463946304607F023
S11304C031F8064628460F4606F0C2FF8AA3D3E950
S11304D0002307F027F802460B463046394606F05B
S11304E069FE02460B4606460F4607F01BF83246E5
S11304F041EC1A0B3B463046394606F05DFE0022BD
S113050041EC1B0B854B51EC1A0B07F035F900221B
S1130510834B06F051FE02460B4651EC1A0B07F0D2
S11305202BF900227F4B06F047FE02460B4651ECA6
S11305301A0B07F021F9324641EC1A0B3B46002016
S11305404FF0804106F036FE02460B4651EC1A0B82
S113055006F032FE02460B4651EC1B0B07F00CF979
S113056005F2FF350022704B06F026FE00222B0513
S113057006F0D8FF42464B4606460F4607F062FA9D
S1130580002840F09780CDE908670BF16303C72B7F
S1130590069B34BF04250525190521D558A3D3E9A5
S11305A000234046494607F043FA002800F0BE8085
S11305B055A3D3E900234046494607F025FA00280D
S11305C000F0B48000255C45CCBFA4EB0B000024F4
S11305D0AB46069BC8BF00F1FF3443F48063069327
S11305E00A9B9D4238BF5E1B069B28BF002613F062
S11305F0020702D0002D18BF0026BBF1000F07D060
S1130600DDE908234046494607F0B6F880468946A6
S11306100022002351EC180B07F0F6F910B109F190
S113062000439946069B514623F40063CDE90363D6
S113063019EE100A19EE903ACDE90089079A02944E
S113064000F08AF875B3069B024613F0200F00F100
S1130650010619EE903A14BF45206520514619EE63
S1130660104AA0470523002205930A238BEAEB7066
S1130670CDE90232A0EBEB704FEADB73013D01934D
S1130680009019EE903A3246514619EE100A04953C
S113069008F095F837B1079BC51A079B58190A9BB0
S11306A0AB424CD80DB0BDEC088BBDE8F08F59ECD3
S11306B0188BBEE6002230463946194B07F05CF829
S11306C00BF1FF3BCDE908015FE700BFAFF300800A
S11306D0FB799F501344D33FB3C8608B288AC63F2D
S11306E061436F63A787D23F71A379094F930A408F
S11306F01655B5BBB16B0240EF39FAFE422EE63F08
S11307002D431CEBE2361A3F0000000080842E418A
S1130710FFFFEF7F0000F83F0000E03F00002C40A7
S113072000002440000018400000F03F002C3FF47B
S113073057AF0B9B002B3FF453AF013C50E70246ED
S113074019EE903A5146202019EE104AA04701357F
S1130750A3E700BF000000002DE9F04F2DED088B4A
S11307608FB0DDE920AB08EE100A0F4608EE902AA0
S113077009EE103ADDE922535246049350465B4693
S11307805946249E07F036F9A0B9049B2396229378
S113079003232193B84B209318EE902A19EE103AB4
S11307A0394618EE100A0FB0BDEC088BBDE8F04FC7
S11307B007F03DBF4FF0FF326FF4801350465946A7
S11307C007F022F930B1049B23962293042321934A
S11307D0AA4BE0E74FF0FF3250465946A84B07F0CA
S11307E031F970B1A74A06F00403002B08BF0322B5
S11307F0A54B1CBF1346042204992396CDE921215D
S1130800C9E7504698A3D3E90023594607F01AF9DB
S113081038B997A3D3E900235046594607F0F4F8B2
S113082098B1049B18EE902ACDE92253394619EE6B
S1130830103A18EE100ACDE920AB24960FB0BDECA7
S1130840088BBDE8F04FFFF7A3BD002200235046FC
S1130850594607F0D9F8002800F081805B465246DB
S11308600020002106F0A6FC012382468B46059356
S113087016F4806F08BF06253021A94606ABA5F102
S11308802002B9F1090FA5EB090406D909F1FF39D2
S11308904A4503F8011BF4D120245946504607F079
S11308A0DBF87A4B054603EBC90393ED007BB0EE0E
S11308B047AAF0EE67AA06F0CBFD02460B46504667
S11308C0594606F077FC53EC1A2B06F02BFE024631
S11308D00B4643EC1B2B07F0E7F8804606F0A8FD17
S11308E002460B4651EC1B0B06F064FC02460B4619
S11308F043EC1B2B0022664B07F0A4F888B308F1E5
S11309000108404606F094FD02460B4651EC1A0BD2
S113091007F084F810B14FF000080135B9F1000F69
S113092051D1284606F094FD02460B4650465946DE
S113093006F040FC0022564B8046894607F064F8D6
S113094030B1002240464946514B07F07BF810B1C4
S1130950E80700D5013506AB0A2223445AE0059086
S113096086E7002251EC1B0B494B07F04DF8002899
S1130970D4D1B8F1000F02D018F0010FCED008F195
S11309800108CBE7B8FBF1F001FB1082B8F1090FC5
S113099002F1300209F1FF3904F1010403F8012BDB
S11309A028D83021A14406AA202C11D04C4504F1AA
S11309B0010321D104F138020DEB02042E2204F8C4
S11309C0202C1C46C7E70A2106AB2344202CD9D18E
S11309D006F00303012B06AB39D1049A002A36D062
S11309E0059A12B916F00C0F02D0049A013A049237
S11309F0302214E08046E9E7A1541C46D4E795FB75
S1130A00F2F102FB1155303503F8015B01340D4658
S1130A100029DDD0202CF2D1DAE71A5501340499EB
S1130A20A14214D9202CF8D1049A0093CDE90142B3
S1130A3019EE103A18EE902A394618EE100A039669
S1130A4007F0F5FD0FB0BDEC088BBDE8F08F202C4E
S1130A50EAD0059AF2B12D2104F138026A4402F871
S1130A60201C0134E0E700BF0000000065CDCD414B
S1130A700000000065CDCDC1408E0000448E000012
S1130A80FFFFEF7F3B8E0000378E0000508E00008A
S1130A900000E03F710704D504F138022B216A44B9
S1130AA0DDE73207C0D504F1380220216A44D6E7D5
S1130AB051EC100B264A21F00043934220DD254AD5
S1130AC0934200B585B009DD10EE102A0B4606F0FE
S1130AD071FB41EC100B05B05DF804FB684600F0B7
S1130AE03BF800F0030001280ED0022822D0D0B138
S1130AF001209DED021B9DED000B00F0B9FFEAE71C
S1130B009FED111B00F050BA9DED021B9DED000BF3
S1130B1000F0AEFF53EC102B03F1004300EE903ACB
S1130B2005B05DF804FB9DED021B9DED000B00F08C
S1130B303BFAD0E79DED021B9DED000B00F034FA6B
S1130B40E8E700BFAFF300800000000000000000F1
S1130B50FB21E93FFFFFEF7F53EC102B2DE9F04F12
S1130B60914923F0004504468D422DED068B8BB050
S1130B7040F38C808D491F468D422BDC002F194693
S1130B8010EE100A7EA3D3E9002340F3B88106F0E7
S1130B9011FB874B804689469D4200F08F800126D9
S1130BA079A3D3E9002306F005FB02460B46404631
S1130BB04946C4E9002306F0FDFA73A3D3E90023F0
S1130BC006F0F8FAC4E9020130460BB0BDEC068B1E
S1130BD0BDE8F08F77498D4240F3928076498D428B
S1130BE061DC2E1510EE100A9046A6F21646A5EB0F
S1130BF00651894606F030FF06F02AFC02460B46F1
S1130C0040464946CDE9042306F0D4FA00226B4B52
S1130C1006F088FC8946804606F01EFF054606F06D
S1130C2017FC02460B4640464946CDE9062306F02A
S1130C30C1FA0022614B06F075FC02460B46CDE971
S1130C4008230022002306F0D5FE002800F0558179
S1130C50002D0CBF012302235949324604A80191F7
S1130C6002210091214600F0DFFA002F0646ABDA9C
S1130C7061684642226801F10043E168C4E9002347
S1130C80A26801F10043C4E902239DE7002000218A
S1130C900026C4E90201304684ED000B0BB0BDEC24
S1130CA0068BBDE8F08F10EE100A194606F082FAA2
S1130CB00026C4E90201C4E9000185E734A3D3E9AD
S1130CC0002306F077FA80468946012632A3D3E949
S1130CD0002306F06FFA02460B4640464946C4E933
S1130CE0002306F067FA2CA3D3E9002306F062FA86
S1130CF0C4E9020130460BB0BDEC068BBDE8F08FB1
S1130D0007F09AF910EE100A59EC108B24A3D3E9DA
S1130D100023494606F006FC00222A4B06F04CFA52
S1130D2006F09AFE064606F093FB02460B4643EC99
S1130D30182B13A3D3E9002306F0F4FB02460B4659
S1130D4040464946B0EE489AF0EE689A06F032FA08
S1130D5082468B460CA3D3E9002351EC180B06F012
S1130D60E1FB1F2E41EC180B30DC174B721E53F8BD
S1130D702230AB422AD002460B469DE0AFF30080FE
S1130D8000004054FB21F93F3163621A61B4D03D45
S1130D900000601A61B4D03D7370032E8A19A33B1E
S1130DA083C8C96D305FE43FFB21E93F7BD9024032
S1130DB0FB21F93FFB213941FFFFEF7F0000704128
S1130DC048BD00000000E03FC8BC00002B155046A1
S1130DD05946039353EC182B06F0ECF9C1F30A536C
S1130DE080468946C3EB1555102D6BDD64A3D3E90A
S1130DF0002351EC190B06F095FB804689465046BA
S1130E00424659464B4606F0D5F902460B46504633
S1130E10594692469B4643EC1A2B06F0CBF94246C0
S1130E204B4606F0C7F98046894657A3D3E9002309
S1130E3051EC190B06F076FB42464B4606F0BAF924
S1130E4002460B465046594643EC182B06F0B2F9BD
S1130E50039AC1F30A5380468946D31A312B31DDF4
S1130E604CA3D3E9002351EC190B06F05BFB80463D
S1130E70894642464B4651EC1A0B06F09BF98246D2
S1130E808B4652465B4651EC1A0B06F093F94246E8
S1130E904B4606F08FF98046894640A3D3E90023E8
S1130EA051EC190B06F03EFB42464B4606F082F924
S1130EB002460B4643EC182B5046594606F07AF985
S1130EC08046894642464B4650465946C4E9008905
S1130ED006F070F953EC182B06F06CF9002FC4E9F6
S1130EE00201BFF671AE09F100437642C4E9008302
S1130EF001F10043C4E9020366E60323ACE606F00D
S1130F005BF9234B804689469D4216D04FF0FF364D
S1130F1019A3D3E9002306F04FF902460B464046D5
S1130F204946C4E9002306F045F913A3D3E9002395
S1130F3006F042F9C4E9020146E611A3D3E900230D
S1130F4006F03AF9804689464FF0FF360EA3D3E9FE
S1130F50002306F031F902460B4640464946C4E9EF
S1130F60002306F027F908A3D3E9002306F024F9A7
S1130F70C4E9020128E600BF3163621A61B4D03DBE
S1130F800000601A61B4D03D7370032E8A19A33B2C
S1130F90FB21F93F0000002E8A19A33BC1492025FB
S1130FA09A837B39000000002DE9F84F57EC106B51
S1130FB027F00049B9F1795F5BEC11AB2DED048B9F
S1130FC071DA10EE100A394606F046FD002800F0EA
S1130FD0F68032463B463046394606F0A3FA0446CC
S1130FE00D467BA3D3E9002306F09CFA7AA3D3E948
S1130FF0002306F0E1F822462B4606F093FA78A384
S1131000D3E9002306F0D6F822462B4606F08AFAE6
S113101075A3D3E9002306F0CFF822462B4606F049
S113102081FA73A3D3E9002306F0C4F822462B46C1
S113103006F078FA70A3D3E9002306F0BDF822463F
S11310402B4606F06FFA41EC180B0022704B204639
S1131050294606F067FA804689462046294653EC1D
S1131060182B06F05FFA04460D4652465B4630469E
S1131070394606F057FA02460B462046294606F042
S113108099F802460B464046494606F093F8024654
S11310900B4600205F4906F08DF8BDEC048B41EC53
S11310A0100BBDE8F88F10EE102A10EE100A3B4624
S11310B0394606F037FA04460D4645A3D3E9002322
S11310C006F030FA44A3D3E9002306F075F822466B
S11310D02B4606F027FA42A3D3E9002306F06AF868
S11310E022462B4606F01EFA3FA3D3E9002306F05E
S11310F063F822462B4606F015FA3DA3D3E90023F4
S113110006F058F822462B4606F00CFA3AA3D3E927
S1131110002306F051F82B46224606F003FA3E4B14
S1131120994541EC180B90DD3C4B99453CDC002281
S1131130A9F50013002037499046994606F03AF87D
S113114041EC190B0022324B2046294606F0EAF9FD
S113115042464B4606F02EF88046894620462946EC
S113116053EC182B06F0DEF904460D4652465B4656
S11311703046394606F0D6F902460B462046294643
S113118006F018F802460B464046494606F012F8A7
S113119002460B4651EC190B06F00CF8BDEC048B1F
S11311A041EC100BBDE8F88F9FED157B4FF0000864
S11311B0DFF86C90B0EE479AF0EE679AC2E7BDECA8
S11311C0048B9FED110BBDE8F88F00BFAFF30080D7
S11311D0D43888BEE9FAA8BDC4B1B4BD9EEE213EA0
S11311E0AD529C804F7E923E9015CB19A001FA3EE1
S11311F07751C1166CC1563F4C5555555555A53FB1
S1131200000000000000E73F000000000000F03F85
S11312100000E03F0000F03F3233D33F0000E93FDD
S11312200000D23F000000002DE9F04FADF5197D1C
S11312301C4612F1140F08930B91B64BA29904901B
S113124053F8211004F1FF3305910393C0F23A835C
S1131250D31EB14981FB0301DB17C3EBA103079341
S11312600133A3EB8303DB00D318079A0693039B94
S1131270D41A059AD61814D4013620AD4FF00008BC
S11312804FF000092644A39F002C4046494603DB47
S113129057F8240006F0DCF80134B442E5E8020112
S11312A0F2D1059B002BC0F2C583089B20AA0DF543
S11312B0E07BDDF80C9002EBC30ADA000292059A97
S11312C01A440192049A02EBC308039B002BC0F258
S11312D0A6815746049E0024002577E90223F6E8F8
S11312E0020106F01FF902460B462046294605F086
S11312F063FF464504460D46EFD109F10109019B00
S11313000AF1080A9945EBE80245DED1049A029BEA
S11313101344059A9B460BAB019203EB82030A9399
S11313200CAB03EB8203083B0993019A98AB002AA8
S113133003EBC20353E9284529DD0DF5E07A0DF1ED
S113134030090AEBC2080022744B2046294606F0F5
S1131350E9F806F081FB06F07BF80022704B0646A4
S11313600F4606F0DFF802460B462046294605F0F4
S113137021FF06F071FB394649F8040B304678E941
S1131380022305F019FF0446D0450D46DBD1DDF8F4
S1131390189045EC104B484600F0B6FC00224FF084
S11313A07F5310EE100A55EC104B294606F0BAF89C
S11313B041EC100B00F024FC00225A4B51EC100BB2
S11313C006F0B0F802460B462046294605F0F2FE28
S11313D00D46044606F040FB804606F039F80B46FD
S11313E002462946204605F0E5FE4B4606460F46D2
S11313F0002B40F39980019A0CA9C9F11803C9F193
S11314001705013A51F8221041FA03F000FA03F3E8
S11314108044CB1A0CA943FA05F541F82230002D7B
S113142000F38C80002200233046394606F0E2FAAD
S1131430002800F04E82019A059B02F1FF3A5345C1
S113144010DC6FF040430A9813440CAA02EB8303A8
S1131450002253F80419834242EA0102F9D1002A16
S113146040F0E080059B0CAA013B52F82330002B8E
S113147040F0D080099A012352F80419013300295D
S1131480FAD0019AD3180293531C9946019A6FF02B
S1131490404A08990A449046079A1A449244A39AE7
S11314A002EB8A0A20AA02EBC80870AA02EBC30363
S11314B001935AF8040F474605F0CAFF0B460399F7
S11314C0024608F10808002948E902231EDB049EAD
S11314D00024002501E077E90223F6E8020106F082
S11314E021F802460B462046294605F065FE5E4576
S11314F004460D46EFD1019B09F10109E3E80245D9
S11315000193029B9945D4DD01930EE70024002545
S1131510F1E700BF90BE0000ABAAAA2A0000703E0B
S113152000007041000020406BD1019B0CAA013BDC
S113153052F82350ED15002D7FF774AF019B08F18D
S11315400108002B40F3C3810C9C002C51D1019B5A
S1131550012B20D00CAB012253F8044F002C4BD0AC
S1131560531C0CA9C4F1807441F82240019999429A
S113157010DD0CA80CAA52F8232000EB830300EB27
S113158081006FF07F4100E01A688A1A43F8042B47
S11315908342F9D10124069B002B0EDD012B00F0C0
S11315A06A81022B09D1019B0CA95A1E0CAB53F87A
S11315B02230C3F3150341F82230022D7FF432AFF9
S11315C032463B460020B64905F0F4FD06460F4678
S11315D0002C3FF427AF06989FEDAD0B00F094FB71
S11315E03046394653EC102B05F0E4FD06460F4611
S11315F018E701230022B4E7013201998A42ABD1F2
S1131600C9E70022A74B06F013FA002840F05281E4
S1131610054607E7019B01339946029336E7002408
S113162000256AE6069B0395A3F118020CABCDF8DE
S11316301C8053F82A30069273B99B4B01991944C4
S11316400B460CA901EB830353F804190AF1FF3A82
S1131650183A0029F8D0069206989FED8D0B00F0F9
S113166053FBBAF1000F55EC104BC0F2D98170ABAB
S11316704FEACA024FF00008DFF8309203EBCA0BBE
S113168004920AF101030CAA0BF1080702EB83068A
S1131690069356F8040D05F0DBFE22462B4605F0B2
S11316A041FF4B46424667E902012046294605F0C0
S11316B039FF0CAB04460D469E42EAD148AB4FF0CD
S11316C00009CDE9013ADDF814A0BAF1000F2CDBD2
S11316D0DFF8DC815F460026002400256EA3D3E9F1
S11316E0002303E0B14510DBF8E80223F7E8020128
S11316F0013605F017FF02460B462046294605F041
S11317005BFDB24504460D46ECDA019BABF1080BD8
S1131710029A03EBC9034A45C3E9004509F10103F1
S113172006D0BAF1000F9946D2DA00240025ECE77E
S1131730A29BDDF808A0022B1EDC002B00F3FF8027
S113174013D1049C0020019D002108342C4474E929
S1131750022305F031FDA542F9D1039B13B101F138
S1131760004319460B9BC3E90001079B03F00700E4
S11317700DF5197DBDE8F08FA29B032BF5D1BAF1CD
S1131780000F00F06981019A049B02EBCA0BD31885
S1131790D3E900457BE902672046294632463B46A9
S11317A005F00AFDA046A94604460D4630462246E9
S11317B039462B4605F0FEFC4B46424605F0FCFC40
S11317C0019B5B45CBE90201CBE90045E2D1BAF1CB
S11317D0010F40F341816FF060430199049A0DF5C4
S11317E0947B53440A44DB0003F1080A0293D2E9D0
S11317F000458A4420462946A046A9467AE902675C
S113180032463B4605F0D8FC04460D463046224697
S113181039462B4605F0CEFC42464B4605F0CCFC3F
S1131820D345CAE90201CAE90045E3D1029C00207C
S1131830019B0021103403F110051C4474E90223B8
S113184005F0BAFCA542F9D1039B002B40F0B5800A
S11318500B9CC4E904010198D0E90023C4E90023E6
S1131860D0E90223C4E90223079B03F007000DF526
S1131870197DBDE8F08F019B0CA95A1E0CAB53F8DF
S11318802230C3F3160341F8223096E6AFF300800A
S1131890000000000000F03F00000040FB21F93F81
S11318A00000F03F0000E03FFEFFFF3F0000703EFD
S11318B058BE0000019B08F10108002B40F3A680EC
S11318C0022541E600216FF017030791CCE40024C0
S11318D061E647EC106B069E03957042CDF81C80C0
S11318E000F012FA00225E4B10EE100A55EC104B79
S11318F0294606F09DF8002855D018360022594B89
S113190020462946069605F00DFE019F06F0A4F830
S1131910064605F09DFD0022514B07F1010A05F032
S113192001FE0B4602462946204605F043FC06F01C
S113193093F80CAB43F8270043F82A608CE6019D2A
S11319400020069B002105EBC30474E9022305F083
S113195033FCA542F9D1039B002B47D10B9B0246D4
S1131960C3E900010B460199D1E9000105F022FC0D
S1131970BAF1000F0DDD4AAD01240134F5E802236C
S113198005F01AFCA245F8DA039B13B101F10043F8
S113199019460B9BC3E90201079B03F007000DF5F1
S11319A0197DBDE8F08F2046294606F055F8019BC5
S11319B00CAA9A4642F823004EE6019E01F1004328
S11319C00B9974683268F568C1E9040304F10043B3
S11319D0C1E9002305F10043B268C1E90223079B72
S11319E003F007000DF5197DBDE8F08F0B9A01F1A6
S11319F0004353600B46019910600246D1E900018F
S1131A0005F0D8FBBAF1000FB5DCBFE732463B4620
S1131A100020154905F0CEFB022506460F4601E5D8
S1131A20A29B022B0ADC002B11DC7FF49EAE00206B
S1131A30002192E6089BDB00029367E4A29B032B40
S1131A407FF493AE48AB002000210193FCE648AB41
S1131A500020002101937EE700200021F4E600BF6E
S1131A60000070410000703E0000F03F00000000E4
S1131A702DE9F04F5BEC10AB2BF0004380462DEDCD
S1131A80028BB3F1795F83B08DED001B07DA10EEA2
S1131A90100A594605F0E0FF002800F08E805246F7
S1131AA05B465046594605F03DFD04460D465046FA
S1131AB0224659462B4605F035FD06460F4620467C
S1131AC0294644A3D3E9002305F02CFD43A3D3E91D
S1131AD0002305F06FFB22462B4605F023FD41A3AE
S1131AE0D3E9002305F068FB22462B4605F01AFDD6
S1131AF03EA3D3E9002305F05DFB22462B4605F007
S1131B0011FD3CA3D3E9002305F056FB41EC180B6F
S1131B10B8F1000F37D000222D4BDDE9000105F0AC
S1131B2001FD804689463046394653EC182B05F0B2
S1131B30F9FC02460B464046494605F03BFB22466B
S1131B402B4605F0EFFCDDE9002305F033FB0446EA
S1131B500D46304639461CA3D3E9002305F0E2FCC8
S1131B6002460B462046294605F026FB02460B4654
S1131B705046594605F01EFB41EC100B03B0BDEC7A
S1131B80028BBDE8F08F02460B462046294605F03D
S1131B90C9FC0DA3D3E9002305F00CFB32463B46F8
S1131BA005F0C0FC52465B4605F006FB41EC100B09
S1131BB003B0BDEC028BBDE8F08F4BEC10AB03B06F
S1131BC0BDEC028BBDE8F08F495555555555C53FC1
S1131BD00000E03F7CD5CF5A3AD9E53DEB9C2B8AF7
S1131BE0E6E55A3E7DFEB157E31DC73ED561C119F6
S1131BF0A0012A3FA6F810111111813F0000000036
S1131C0051EC100BF8B5C1F30A530C4610EE106AF0
S1131C10A3F2FF35132D30DC002D1EDB384F2F418E
S1131C2001EA070303432DD033A3D3E9002305F0CE
S1131C30C3FA0022002305F005FF48B1002C04DAA2
S1131C404FF4801343FA05F52C4424EA07040026D4
S1131C502346324643EC102BF8BD27A3D3E90023D7
S1131C6005F0AAFA0022002305F0ECFE0028EFD0CC
S1131C70002C29DB00263446EAE7332D05DDB5F5D3
S1131C80806F19D041EC100BF8BDA3F213434FF051
S1131C90FF37DF400742F5D017A3D3E9002305F04F
S1131CA08BFA0022002305F0CDFE0028D0D0002CB2
S1131CB013DB26EA0706CBE710EE102A0B4605F0E5
S1131CC07BFA41EC100BF8BD24F000430D4A33437A
S1131CD00026B34218BF1446BAE7142D08D00123D6
S1131CE0C5F1340503FA05F5AE1928BFE418E0E799
S1131CF00134DEE7AFF300809C7500883CE4377E56
S1131D00FFFF0F000000F0BF38B553EC102BC3F3F6
S1131D100A519C46044689BB23F0004C10EE101A6D
S1131D205CEA010129D03E4D194600223D4B10EEDC
S1131D30100A05F0F7FBAC4202460B4616DB8C4654
S1131D40C1F30A513639214440F2FE70814221DC4C
S1131D50002947DC11F1350F34DA4CF250318C4252
S1131D6018DC002B26A1D1E9000143DB24A3D3E92D
S1131D70002305F0D7FB41EC100B38BD40F2FF7E89
S1131D807145E0D110EE100A194605F015FA41EC40
S1131D90100B38BD002B1CA1D1E9000107DB1AA3ED
S1131DA0D3E9002305F0BEFB41EC100B38BD18A1AC
S1131DB0D1E9000114A3D3E9002305F0B3FB41ECFE
S1131DC0100BF3E7184836311446184B0CEA0000A0
S1131DD0002240EA01552046294605F0A3FB41ECC8
S1131DE0100B38BD10480CEA000040EA015343ECE4
S1131DF0102B38BD08A1D1E90001B7E7AFF300808B
S1131E0059F3F8C21F6EA5019C7500883CE4377E27
S1131E109C7500883CE437FE59F3F8C21F6EA58117
S1131E20B03CFFFF00005043FFFF0F800000903CD8
S1131E3010B5054C237833B9044B13B1044800E0C2
S1131E4000BF0123237010BD9C100020000000007F
S1131E50A0BE000008B5034B1BB10349034800E0D2
S1131E6000BF08BD00000000A0100020A0BE0000BC
S1131E70A3F5803A704700BF174B002B08BF134BE4
S1131E809D46FFF7F5FF00218B460F461348144A81
S1131E90121A06F046FD0E4B002B00D098470D4B4E
S1131EA0002B00D098470020002104000D000D48AD
S1131EB0002802D00C4800E000BF06F009F820001A
S1131EC0290006F0E2F905F0EFFF00BF000008006A
S1131ED00000000000000000001000209C10002002
S1131EE0FC730020000000000000000070B592B0F8
S1131EF0434E08AD0FCE0FC50FCE0FC596E80300B5
S1131F000024012685E8030003213E4D4FF4806040
S1131F10CDE90344CDE905448DF80E1007948DF8FE
S1131F2008608DF809408DF80A408DF80B4001F0E7
S1131F300BFF31462A2001F039FB284602F07CFDD4
S1131F400F214FF4B06001F0FFFE22462E492846CF
S1131F5002F00EFE8DF819004FF4B06001F050FB52
S1131F604BF68033B0FBF3F002238DF8173040F2C8
S1131F70BA430B939DF819302246ADF81A0000932A
S1131F802846234621498DF823408DF8214002F04C
S1131F901DFE94238DF80930A1238DF8083005F532
S1131FA000530A908DF810608DF811408DF80E6082
S1131FB08DF80C408DF80D408DF80F608DF81340AE
S1131FC05E60134B28462B6505F580535E6008AAB6
S1131FD005A902F035FE02AA284603A902F0DCFC9A
S1131FE04FF080734FF48032EB600A4BEA60C3F821
S1131FF02463C3F82823084B1C7012B070BD00BFC3
S11320004C8900000040005A005A620280969800F1
S113201000AE028000C00350347300200022002070
S1132020084B0949D3ED007AB1EC017A67EE877A5F
S11320300132B2F5806FC3ED007A586003F10803F2
S1132040F0D17047BC200020FC400020644A9FED82
S1132050657AD2ED056AD2ED067A76EE876AB6EE37
S1132060006A76EEA76AD2ED077A66EE866A5E4B60
S113207077EE877AC3ED046AD2ED086A77EEA67A22
S113208067EE867AC3ED057AD2ED097AD2ED0A6A53
S113209077EE877A77EEA67AD2ED0B6A77EEA67A98
S11320A0D2ED0C6A77EEA67AF5EE006A67EEA67AB0
S11320B05168C3ED067A196091683432596052F858
S11320C0281C996052F8241CD9600921F2EC017A89
S11320D0013937EE277AF9D1F2EE026AC7EE267A91
S11320E01522C3ED077ADFED3F7A4049B1EC017A5E
S11320F0013A77EE877AF9D1F3EE056A87EEA67A8C
S11321002B2283ED087A9FED377A3949F1EC017A75
S1132110013A37EE277AF9D1DFED367AC7EE276A2E
S11321202B22C3ED096A9FED2F7A3349F1EC016A42
S1132130013A37EE267AF9D1C7EE276A2A22C3ED8F
S11321400A6A9FED287A2D49F1EC016A013A37EECB
S1132150267AF9D19FED2A6AC7EE066A2B22C3EDCF
S11321600B6A9FED207A2749F1EC016A013A37EEB8
S1132170267AF9D1C7EE276A6B22C3ED0C6ADFED2C
S1132180197A2149B1EC017A013A77EE877AF9D1CB
S1132190DFED1E6A87EEA67A6A2283ED0D7ADFED03
S11321A0117A1B49B1EC017A013A77EE877AF9D1B9
S11321B0DFED186A87EEA67A552283ED0E7ADFEDFD
S11321C0097A1549B1EC017A013A77EE877AF9D1A7
S11321D0DFED126A87EEA67A83ED0F7A704700BFAF
S11321E0B810002000000000BC40002010110020A6
S11321F06411002000002C4210120020BC120020A8
S11322000000284264130020101400200000D6426D
S1132210BC1500200000D442641700200000AA422C
S1132220DFED0B7A30EE270A9FED0A7AC0EE276ABB
S1132230DFED097A46EE877AFDEEE77A17EE900A2B
S11322403728A8BF372020EAE070C0B2704700BF2B
S11322500000A04200005C420000000070B51024A1
S1132260074D084E95ED000AFEF70AF8A5EC010AA1
S1132270FFF7D6FF013C06F8010BF3D170BD00BF98
S1132280BC4000203573002010B50B4CFDF7C8FF8F
S1132290FFF7C4FE012321460022084804F016FC7F
S11322A04FF480622046064904F08AF8FFF7CEFE18
S11322B0BDE81040FFF7D2BFBC200020A08E000074
S11322C0B810002008B505F0CDFFFFF70FFE00F0B1
S11322D063F800F001F900F025F900F093F8FDF738
S11322E033FF00F0DFF8BDE808400146014804F080
S11322F053B800BF7489000070B50122164BDA6030
S11323001022164B1A61164A136923F00403136151
S113231030BF144B1A78F2B10025134C1D70134EC4
S1132320FFF7B2FF2560124D23680F2B06DDBDE8D1
S113233070404FF480610F4800F0ACB9D800EA5CFB
S1132340F15C00F0F80000F00FF92368F25CEA5445
S113235001332360E8E770BD0040005A00D0035009
S113236000ED00E034730020B82000203573002015
S113237045730020FC50002002220120034BDA6048
S11323801022034B1870034B1A6170470040005A27
S11323903473002000E00350F7B50025114C124EB1
S11323A0124B2946102220463360C6E90155F560D8
S11323B006F0B7FA0E4A0F4B0F4FC4E900230F4B38
S11323C0A3600323237300F0DFFD2946384600F0A1
S11323D063FD224631460A4B3868009500F008FE3A
S11323E003B0F0BDFC6000201061002001000B0070
S11323F0F03F100B7440005A0C610020FC50002088
S11324007923000030B589B00121282001F0CEF8ED
S1132410002304220321012001F0FCFF00230422F5
S11324200221012001F0F6FF0023012219460220B7
S113243001F0F0FF012304221946184601F0EAFFD7
S1132440144B154A154DC3F83426A2F58032C3F84F
S113245030260222C3F82C264FF00112C3F820269E
S11324601D2201ACC3F81C260FCD0FC495E807004C
S1132470012384E807008DF812308DF81930052304
S1132480074801A98DF81C308DF81B3003F068F85B
S113249009B030BD00C00350010003008C89000066
S11324A000C0055010B50B4C0C21204605F0FBFF75
S11324B00021204605F0F7FF4FF400636361A36930
S11324C09A06FCD5A3691B06FCD5E06AC0F3072075
S11324D010BD00BF00C005500449054B05484B60C2
S11324E013230B81044B0B6000F008BC2061002017
S11324F0B1890000008006507800010010B4072460
S1132500054A064B907051711C81194604485DF8C8
S1132510044B5A6000F0F2BB8C10002020610020B4
S113252000800650F8B540230C4D00222B70012387
S1132530EA540133812BFBD10024094E094FE1B247
S11325400020FFF7DBFF812338460549013475601D
S1132550338100F0D3FB082CF1D1F8BD5673002071
S113256020610020008006502DE9F84F402A28BF42
S11325704022402928BF4021012A38BF01220129D5
S113258038BF01218D1A6DB2002D044678D04FEA70
S1132590D203C3F1070704DD22F00703CA1A56B2B7
S11325A008E0500701F0070633D16EBB521A56B249
S11325B0C3F10807002DD4BF4FF000094FF0010903
S11325C0DFF8C0A0DFF8C080DFF8C4B0C9F10009AB
S11325D0072E2BDC002E53DD2046F9B2FFF78EFFC9
S11325E005222849284B0A81284A4B60925D2848D5
S11325F05A709A70DA701A715A719A71DA711A7281
S1132600BDE8F84F00F07ABB0831324421F00701ED
S1132610CCE7083202F0F8020EB9521ABFE701F112
S1132620080020F00700121A3244B8E7FFB2394616
S11326302046FFF763FF05235846AAF808301149DE
S11326405FFA89F3CAF8048088F8013088F8023008
S113265088F8033088F8043088F8053088F80630A4
S113266088F8073088F8083000F048FB002DA6F100
S11326700802CCBF07F1FF37013756B27FB2A7E794
S1132680BDE8F88F2061002056730020A88900005F
S113269000800650F0B41D4A1378ABB1012B20D052
S11326A000241B4D1B4E8C4222DA50F82420B5F92D
S11326B00030B6F900701344DB1B1BB225F8023B53
S11326C026F8023B0134EEE701241470114A8B42D0
S11326D001DBF0BC704750F82340013322F8024B71
S11326E0F5E70223137000230A4C094D8B4203DBE8
S11326F0F0BC0748FDF7E0BD50F8232034F9026B25
S11327000133324425F8022BF0E700BF5573002053
S113271034630020346B002010B5234C01F0FEF824
S113272001F0F0FA236F23F0070343F00303236758
S113273005F078FE1D4B00209B6A9B075EBF0122BB
S11327401B4B9A62D4F8203123F0030343F00203B5
S1132750C4F82031D4F8243123F0070343F00203F2
S1132760C4F82431D4F8403123F0030343F00203C6
S1132770C4F84031D4F8603123F0030343F002037A
S1132780C4F86031D4F8403223F0030343F0020369
S1132790C4F84032D4F8003223F0070343F00203B4
S11327A0C4F8003210BD00BF0080005000C00050CB
S11327B000E0005008B502F047FD01280ED1104B8F
S11327C004205A6E4FF480230E49520358BF0E4A18
S11327D04B6601F51041086258BF536602F0A0FF32
S11327E005F084FD02F02AFF02F084FF02F048FFA6
S11327F0FFF792FF02F032FFBDE8084005F06DBD1F
S1132800008000500090005000A0005008B53A200D
S1132810012100F0CBFEBDE80840014800F0AEB94C
S11328200010002030B595B0244D0DAC0FCD0FC471
S113283095E80700032384E807008DF84D30292329
S11328401F4A2049CDE902231F4B1024CDE904136C
S11328504FF480732246002109A8069306F061F81C
S11328604FF4A020194B0DAACDE907030F238DF8CF
S11328702430174B17480A9320230B9340F201137B
S1132880ADF83030144B07A9009302AB8DF8254006
S113289003F0F6F9044618B18821104805F07BFDD1
S11328A09DF832304FF4E130002B0CBF032100219E
S11328B005F059FD204615B030BD00BFF489000075
S11328C0000006500005000600080007240006501A
S11328D0D77300208061002034610020C489000087
S11328E008B5FFF79FFF28B1BDE80840B8210248AA
S11328F005F051BD08BD00BFC4890000014805F0C2
S113290045BE00BF8061002008B500F02DF8124BD1
S113291012498B4212D30020114B12498B4218D317
S1132920FFF7AAFA186850F82240586840F8224085
S1132930013298688242F5D30C33EAE70022F8E7C3
S11329401C6844F8220001325C68A242F8D30833C0
S1132950E4E70022F8E700BFA8BE0000B4BE000010
S1132960B4BE0000B4BE000010B54FF400414FF0F7
S1132970FF30124B124A9A60D3F8882042F4700256
S1132980C3F888200F4A916601F1884101F500528D
S113299010664FF6DF7050660220C3F8D000BFF314
S11329A04F8FBFF36F8F08244FF440330648C0F8AD
S11329B08041D36004600B6110BD00BF00ED00E0F6
S11329C0000000000090005000E100E0014B186896
S11329D0704700BF18100020084B1B6F03F007035B
S11329E0022B04D0032B05D0012B05D0FEE7044BAA
S11329F018687047034BFBE703487047008000509A
S1132A00181000201C100020002D310108B5FFF71C
S1132A10E3FF054B1B6FC3F303330133B0FBF3F048
S1132A20024B186008BD00BF008000501410002045
S1132A300048704700B4C404014B1868704700BFD5
S1132A401C100020054B1860054B1B6F03F0070397
S1132A50032B01D1FFF7DABF704700BF1C10002021
S1132A600080005000487047002D3101014B186868
S1132A70704700BF2010002008B501213A2000F063
S1132A8095FD032101230422002001F0C3FC002052
S1132A9005F000FD0122214B4FF46070C3F844247B
S1132AA000F0AEFD1E4B00F5D520D3F8F02000F267
S1132AB0FC4042F00102C3F8F020D3F8FC2042F0BD
S1132AC08072C3F8FC20174AA3F55D431A60164BC5
S1132AD00222B0FBF3F0154B01381861C3F8F02063
S1132AE04FF48072C3F804234FF06043104A00206F
S1132AF0C3F8B02F0F4AC3F8802ED3F8002E42F447
S1132B008072C3F8002EFF2283F82020D3F8002E11
S1132B1022F48072C3F8002E08BD00BF00D0035019
S1132B2000ED00E0FF030040F8590D00000004E050
S1132B3055CEACC50900010030B54FF06043D3F861
S1132B40802ED20715D501240B4D8440D5F8FC20E6
S1132B5042F08072C5F8FC20D3F8002E2243C3F85B
S1132B60002E53F82020002AF0D003F82010002073
S1132B7030BD1120FCE700BF00ED00E02DE9FF4768
S1132B80044618B93921584805F005FC2368574A0A
S1132B9093420AD0564A934200F083804F21524810
S1132BA004B0BDE8F04705F0F6BB2E20012100F08B
S1132BB0FDFC01230A226179207901F02BFC012319
S1132BC00A22E179A07901F025FC0A274FF00108D7
S1132BD0DFF82491474D267994F805A0002E62D0A1
S1132BE0012E63D0022E63D0032E04D10F2323FAC7
S1132BF00AF3DA0704D440F2FE31484605F0CBFB71
S1132C00302202FB065642F2100208FA0AF3B350CD
S1132C10642003F0F1F8267994F805A0002E49D039
S1132C20012E4AD0022E4AD0032E04D10F2323FAB8
S1132C300AF3DB0704D440F22D41484605F0ABFB10
S1132C40302202FB065641F2100208FA0AF364200D
S1132C50B35003F0D1F8013FBDD12068234B984213
S1132C602FD10323C5F890346279237943EA0243D0
S1132C70C5F89434E279A37943EA0243C5F8983459
S1132C8040F20113ADF80030E36869460293A3688B
S1132C900193237C8DF80C3001F09EFC04B0BDE858
S1132CA0F0872F2082E740F2FF13A0E71F239EE75F
S1132CB0FF239CE740F2FF13B9E71F23B7E7FF2385
S1132CC0B5E70B4B9842DBD10323C5F8A0346279F6
S1132CD0237943EA0243C5F8A434E279A37943EAA9
S1132CE00243C5F8A834CBE7108A00000000015A5B
S1132CF00080065000C00350668A000038B50546BF
S1132D0001F0C0FD044C012801D1013C00D138BDC3
S1132D10284601F095FCF6E7E19304002DE9F04F15
S1132D2085B09A46554B06461B780F461546DDF886
S1132D303C909DF844B0DDF85080002B00F08D806D
S1132D40072A00F28C800E9B002B00F08880B9F1DA
S1132D50000F00F08480129BB3F5006F7FDC012824
S1132D6002D1109B002B7AD0454B03EB05131B7B40
S1132D70002B76D0434C10220021684605F0D1FD8B
S1132D8004EB45141022002F59D13946204605F092
S1132D90C8FD43F210036380BBF1000F03D1E37855
S1132DA043F00303E370374A0E9B02EB451CCCE966
S1132DB00193129B6901013BC3F30A009DF84C3057
S1132DC0012E03F003034FEA836343EA001E5358C2
S1132DD02D48CDF800A000EA03004EEA000353504A
S1132DE041D113230CF1100ECCF80C309CE80F00E9
S1132DF08EE80F006FF00301DCF81C20109B61F3D8
S1132E009F02012FCCF81C20CCF8143003D1CCF84D
S1132E101890CCF804300027194A290102EB051355
S1132E2042F80180159A28465A60694622469F60F6
S1132E305E7302F039F9384605B0BDE8F08F002121
S1132E40204605F06EFD4FF444736380BBF1000F20
S1132E50A9D1E37843F03003A4E70C48ECE70C482D
S1132E60EAE70C48E8E7B8F1000FD4D19CF8023047
S1132E7068F304138CF80230CDE700BFF773002029
S1132E8098610020186200200F80FFF3028000F098
S1132E90018000F0078000F038B5124B05461B781E
S1132EA0DBB1E0B105F0DAFA0F4A00231146147BD6
S1132EB054B92B6001251A0101EB03131D738C50C7
S1132EC005F0D2FA204638BD0133082B02F1100276
S1132ED0EDD105F0C9FA0548F5E70548F3E70548DB
S1132EE0F1E700BFF773002098610020048000F030
S1132EF0028000F0018000F013B505F0AFFA002362
S1132F000B4A147B7CB90133082B02F11002F8D16F
S1132F10019002F03FF8074B01981C7005F0A4FAE9
S1132F20204602B010BD05F09FFA0348F9E700BF40
S1132F3098610020F7730020058000F010B50D4B58
S1132F4004461B7893B1072812D805F087FA0A4B78
S1132F5003EB04131A7B2AB100241C7305F084FAD2
S1132F60204610BD05F080FA0448FAE70448F8E763
S1132F700448F6E7F773002098610020068000F00B
S1132F80028000F0018000F013B5154B186800238F
S1132F9001908DF8043005F061FA124B1C7824B1CD
S1132FA005F062FA104802B010BD01221A7005F053
S1132FB05BFA0E4B01A81C731C7783F82C4083F832
S1132FC03C4083F84C4083F85C4083F86C4083F8C1
S1132FD07C4008238DF8073002F01CF82046E2E715
S1132FE0B28A0000F7730020038000F0986100208B
S1132FF0F8B50D4D2D7885B1072810DC0B4D060171
S113300005EB0014277B67B1AB510025069BA56037
S1133010636002F049F82846F8BD0548FCE7054816
S1133020FAE70548F8E700BFF7730020986100202D
S1133030028000F0018000F0078000F008B50A4A21
S113304012785AB107280BD8084A02EB00131B7BED
S113305043B1002101F0BCFF002008BD0448FCE797
S11330600448FAE70448F8E7F77300209861002061
S1133070028000F0018000F0078000F008B50A4AE1
S113308012785AB107280BD8084A02EB00131B7BAD
S113309043B1012101F09CFF002008BD0448FCE776
S11330A00448FAE70448F8E7F77300209861002021
S11330B0028000F0018000F0078000F008B50A4AA1
S11330C0127852B107280AD8084A02EB00131B7B76
S11330D03BB102F069F8002008BD0548FCE705484B
S11330E0FAE70548F8E700BFF7730020986100206D
S11330F0028000F0018000F0078000F00D4B1B7887
S113310093B1072812D889B10B4B03EB00131B7B37
S113311073B10A4B1A6D012303FA00F010401ABF71
S113312000200B70087070470548704705487047C9
S113313005487047F7730020986100200000045090
S1133140028000F0018000F0078000F010B50B4A07
S11331500C46127862B107280CD859B1084A02EB20
S113316000131B7B43B102F03BF82070002010BD1C
S11331700448FCE70448FAE70448F8E7F77300203A
S113318098610020028000F0018000F0078000F0C8
S11331902DE9F0471F4B204C1F6D5A6D174010D579
S11331A04FF000411D4A1165D868C0F304200301A3
S11331B0E35804EB00125BB3BDE8F047002152680A
S11331C0184701260025DFF85480DFF85490374271
S11331D017D02368C8F850609BB1A1682846013114
S11331E06268A1609847637B012B0AD148B909EB57
S11331F045131A7B60F341021A731A7F60F341028C
S11332001A770135082D4FEA460604F11004DED181
S1133210BDE8F087000004509861002000200450AD
S113322018620020044BD3F88420D206FBD4D3F8D0
S11332308400C0F3811070470040005038B5104B33
S11332400546D3F820310C4603F00303022B0BD0C0
S1133250032B0DD0012B0FD1FFF7B8FB052305B1CC
S1133260286004B1236038BDFFF7E6FB0323F6E7CB
S1133270FFF7F8FB0223F2E701230020EFE700BF8A
S113328000800050F7B50027114B0197D3F8804117
S1133290064604F00304012C0D4608D0022C12D07B
S11332A041F284310B4805F076F83C4604E0394697
S11332B001A8FFF7C3FF0F240EB1019B336005B1D2
S11332C02C6003B0F0BDFFF7CDFB0190F4E700BF25
S11332D000800050B68A000038B51A4B0546D3F872
S11332E024010C4600F00700062821D8DFE800F08E
S11332F0280410181C0C1400FFF768FB052305B103
S1133300286004B1236038BDFFF760FB0623F6E7AD
S1133310FFF792FB0323F2E7FFF78EFB0423EEE7AC
S1133320FFF7A0FB0223EAE705F02DF80723E6E701
S1133330054840F67B7105F02EF800231846DEE7B9
S11333400123DCE700800050B68A000038B5104B3A
S11333500546D3F840310C4603F00303022B0BD08F
S1133360032B0DD0012B0FD105F00FF8092305B164
S1133370286004B1236038BDFFF778FB0823F6E723
S113338005F006F80B23F2E701230020EFE700BF66
S11333900080005038B5164B0546D3F800020C46A1
S11333A000F00700042819D8DFE800F020030B0F11
S11333B0130004F0EAFF092305B1286004B1236077
S11333C038BDFFF753FB0823F6E704F0E1FF0B23B6
S11333D0F2E7FFF71BFB0E23800AEDE7054841F2F5
S11333E0424104F0D8FF00231846E5E70123E3E750
S11333F000800050B68A000038B5124B0546D3F859
S113340040320C4603F00303022B0BD0032B0DD0E8
S1133410012B0FD104F0B9FF092305B1286004B1D1
S1133420236038BDFFF722FB0823F6E704F0B0FF62
S11334300B23F2E7044841F2CD3104F0ACFF002342
S11334401846EAE700800050B68A000038B5104BF1
S11334500546D3F860310C4603F00303022B0BD06E
S1133460032B0DD0012B0FD104F08FFF092305B1DD
S1133470286004B1236038BDFFF7F8FA0823F6E7A3
S113348004F086FF0B23F2E701230020EFE700BFDF
S11334900080005010B40F4C0B46D4F8204204F0C6
S11334A00304012C0ED0022C10D008B100210160BD
S11334B00BB100221A6040F6A57107485DF8044B71
S11334C004F069BF5DF8044BFFF7B8BE5DF8044B28
S11334D0FFF73CBF00800050B68A000010B5B0F57D
S11334E0207F34D009D8B0F5007F2AD003D898B112
S11334F0B0F5C07F10D0002421E0B0F5607FFAD190
S1133500154BD3F88030C3F301149B0617D5032C55
S113351015D04FF422710FE00F4B1C6F230B13F0E7
S11335200E0FC4F303340AD0032C08D0072C06D0A2
S11335300F2C04D04FF41E71084804F02CFF601CBB
S113354010BD054BD3F89040C4F30464F7E7024B75
S11335501C6FC4F38024F2E700800050B68A000098
S113356010B54FF400320E4B04469A660020FFF764
S1133570B5FF41F6713260430A4C0B4BA0428CBF3D
S11335804FF480100020D969DA639A6822F440125B
S113359002439A60CA0344BF0022DA6310BD00BF2D
S11335A000900050005A62020000035070B54609B2
S11335B004460D460FD140F21F310D4804F0EBFED6
S11335C0334604F01F0485B103F58053012000FA4B
S11335D004F41C6070BD012E05D0064B064A022E71
S11335E018BF1346EDE7054BEBE703F50053EDE792
S11335F0B68A0000688000506082005064800050E9
S113360030B585B0002380280446019374D02AD8AD
S1133610002877D0A0F12004412C32D8412C30D896
S1133620DFE804F070737073868686867373903F48
S1133630A6653F7373732F2F2F2F2F2F8B57737301
S113364073B0AB732F2F2F2F2F2F2F2F2F2F2F2F01
S11336502F702F707070862F2F2F2F2F2F2F2F2F1B
S11336602F2F2F2F7070B0F5806F61D024D8B0F554
S1133670007F54D00BD8B0F5807F68D0B0F5C07F00
S113368040D040F27C41424804F085FE37E0B0F57A
S1133690607F44D0F5D8B0F5207F36D0B0F5407FB8
S11336A0EFD1FFF7B3F904464FF42070FFF716FF8C
S11336B0B4FBF0F0400821E0B0F5C06F58D00DD84D
S11336C0B0F5A06F39D0B0F5B06F3BD0B0F5906FC6
S11336D0D7D1002101A8FFF7FFFD10E0B0F5E06F9E
S11336E04BD0B0F5F06F4DD0B0F5D06FC9D10021FB
S11336F001A8FFF74FFE02E0FFF76EF90190019871
S113370005B030BDFFF782F9F8E7FFF77FF904460B
S11337104FF42070FFF7E2FEB4FBF0F0EEE7FFF7A2
S11337205BF905462046FFF7D9FEB5FBF0F0E5E767
S1133730002101A8FFF782FDE1E7002101A8FFF7BE
S1133740A9FEDCE7002101A8FFF79CFDD7E702935F
S11337504FF0E0231B695B0705D5FFF757F902908B
S1133760029B0193CBE703A902A8FFF7EFFDF7E75C
S1133770002101A8FFF7EAFDC1E7002101A8FFF736
S11337803BFEBCE7002101A8FFF760FEB7E700BFDE
S1133790B68A000008B58020FFF732FF034B984239
S11337A09EBF4FF48032024B1A6708BD005A620272
S11337B000A000501FB50023B0F5807F01937FD097
S11337C027D8382800F09C800BD82438092810D832
S11337D009280ED8DFE800F06F6F6F6F0D0D670DCD
S11337E03685522867D007D83D283AD03E2800F0C5
S11337F08C8040F25D5152E08028FAD1454B1B6F1A
S113380003F00703013B032B47D8DFE803F04441EF
S11338103F75B0F5D06F64D019D8B0F5A06F6FD0F4
S11338200AD8B0F5806F46D0B0F5906FE1D1002092
S113383001A9FFF751FD3AE0B0F5B06F33D0B0F510
S1133840C06FD6D1002001A9FFF780FD2FE0B0F5AD
S1133850006FECD00AD8B0F5E06F56D0B0F5F06F39
S1133860C7D1002001A9FFF7F1FD20E0B0F5086FF2
S1133870BFD1284BD3F8003103F00303022B35D01A
S1133880032B37D0012B39D1FFF7D6F8032300E0FF
S1133890052301930BE00223FBE740F2AE411E48EF
S11338A004F079FD03E0002001A9FFF7EBFC019887
S11338B005B05DF804FB002001A9FFF7BFFCF6E7A3
S11338C002934FF0E0231B695B0705D5FFF79EF8D1
S11338D00C230393039BDCE703A902A8FFF736FD3F
S11338E0F8E7002001A9FFF755FDE0E7FFF7BEF870
S11338F00823CEE704F047FD0723CAE70123C8E7FE
S1133900002001A9FFF7C6FDD1E7002001A9FFF7B8
S113391073FDCCE700800050B68A00004FF400220B
S1133920034B5A66012203F580439A62704700BF35
S11339300090005070B5036804460F2B04D940F67C
S113394049316E4804F027FD63680F2B04D940F613
S11339504C316A4804F01FFDA3680F2B04D940F6CC
S11339604F31664804F017FD237B0F2B04D940F632
S11339705231624804F00FFD637B0F2B04D940F6EB
S113398055315E4804F007FDA37B3F2B04D940F674
S113399058315A4804F0FFFCE37B3F2B04D940F62E
S11339A05B31564804F0F7FC2369032B04D940F635
S11339B05E31524804F0EFFC6369032B04D940F6EE
S11339C061314E4804F0E7FCE369012B04D940F669
S11339D064314A4804F0DFFC8020FFF7EBFE032843
S11339E000F082804FF40022454B02215A6645F6CE
S11339F00E03444AC2F88030434B9962012103F517
S1133A0080539962936DD903FCD4D4E900131B0548
S1133A1043EA0163E17B94F822500B43217B94F841
S1133A20236043EA0143617B43EA0133A17B43EA18
S1133A30811313619169D4E904031B0643EA80638B
S1133A4001F000410B43A17EE07E0B43217E43EA5B
S1133A500143617E43EA01239361E369126A002B07
S1133A600CBF0021082122F00D0242EA030242EABF
S1133A708002244B42EA01021A6294F820204FEAA1
S1133A80421232D1986A94F8211020F0330042EAAD
S1133A900112024342F001029A621C4A996D32EA11
S1133AA00101FBD1022218498A621A659A6D5200FB
S1133AB0FCD41869A26820F4700040EA02504FF068
S1133AC000421861104B9A611DB9022203F580531C
S1133AD09A6216B901220E4B9A6294F824301BB1F3
S1133AE0084B0C4AC3F8802070BD996A21F0330159
S1133AF031430A4342EA4502EEE700BFB68A0000BA
S1133B000090005000C0005000D00050030001405D
S1133B1000E00050F1A7FFFF014B93F9000070474C
S1133B20F873002010B543680446072B04D940F607
S1133B3086512A4804F02FFCA368032B04D940F6CD
S1133B408851264804F027FC2378032B04D940F637
S1133B508A51224804F01FFC94F90130002B04DA46
S1133B6040F68C511D4804F016FC4FF480011C4AA9
S1133B70637851664FF4D151022002F5B832516294
S1133B8018494F2B48604FF0010028BF4F2301F51F
S1133B90805148601169C903FCD4217843EA0123A8
S1133BA05361D4E901131B0143EA0123617B0B43F5
S1133BB0217B43EA41039360E37BA17B1B0143EA3E
S1133BC04113617C0B43217C43EA41035360A37C92
S1133BD013B16FF4D153536210BD00BFB68A000015
S1133BE00090005000100250014B1880704700BF35
S1133BF08A100020014B1880704700BF88100020F5
S1133C0010B5B0F5207F65D00ED8B0F5007F4FD049
S1133C1003D800B3B0F5C07F1DD040F20231BDE837
S1133C201040344804F0B7BBB0F5607FF5D14C1EAA
S1133C30012C06D9042904D040F2E5212D4804F0D2
S1133C40AAFB2D4AD2F8803023F0300343EA041350
S1133C50C2F8803010BD102901F1FF3404D8274B7D
S1133C6023FA01F1CB0704D440F2B921214804F02E
S1133C7092FB04F0C4FB04F0D0FB4FF48031204BE2
S1133C801D4A1967136F23F4704343EA043313671F
S1133C90FEF7BCFE0446FFF7C5FAC0F10201204658
S1133CA004F0B5FB00F03EF8BDE81040FFF772BD2C
S1133CB04C1E1F2C04D940F2F6210E4804F06BFB75
S1133CC00D4BD3F8901021F0F85141EA0461C3F888
S1133CD09010BFE74C1E012C04D94FF43F710548E6
S1133CE004F059FB044B196F21F4806141EA8421EB
S1133CF01967AFE7B68A0000008000501601010082
S1133D000090005008B50121022000F025FA04F0CB
S1133D1076FB04F082FB4FF48032014B1A6708BD36
S1133D200090005008B54FF4C070FFF769FCBDE87F
S1133D300840044988428CBF022101214FF42070BD
S1133D40FFF75EBF80F0FA0270B5B0F5807F0C46D5
S1133D5000F00E812BD8382800F0C08110D8243808
S1133D60092816D8092814D8DFE810F0E500E50082
S1133D70E500E50013001300D000130048008001A3
S1133D80522800F0D88007D83D2853D03E2800F0B0
S1133D90BE8140F61E1125E18028FAD18B1E052B29
S1133DA000F2A980DFE803F0A495A7AFA768B0F5F7
S1133DB0D06F00F05B8132D8B0F5A06F00F08E8137
S1133DC015D8B0F5806F00F0B680B0F5906FE0D1F3
S1133DD0013C062C00F235819D4B195D9D4AD2F8B9
S1133DE0243123F007030B43C2F8243170E0B0F50B
S1133DF0B06F00F08B80B0F5C06FCAD1013C0A2CC3
S1133E0000F20181DFE814F00401FF00FF00FF006D
S1133E10FF00FF00FF00F30006010601FD00B0F5FE
S1133E20006FD5D017D8B0F5E06F00F07081B0F511
S1133E30F06FAED1013C0A2C00F2FA80DFE814F0F6
S1133E40FD00F800F800F800F800F800F800EC00B5
S1133E50FF00FF00F600B0F5086F9AD14C1E072C46
S1133E6000F23381DFE814F0360131013801310109
S1133E70310131012F0125010025042601210220F1
S1133E8000F06AF904F0BBFA04F0C7FA4FF4803189
S1133E90714B704A1967136F23F007033343136799
S1133EA0FEF7B4FD0646FFF7BDF9C0F10201304646
S1133EB004F0ADFA0121002000F0A6F9FFF732FF6B
S1133EC0FFF768FC25B9032C02D10122634B9A62E7
S1133ED070BD4FF40022604B0E465A66012203F572
S1133EE040539D6A03F58053C5F340059A62C5E7C4
S1133EF000250126C2E7002540F21461584804F069
S1133F004AFA2E46BAE700250226B7E7022C07D064
S1133F100F2C0ED040F25D61514804F03CFA0024AD
S1133F204C4BD3F8801121F003010C43C3F88041BA
S1133F30CEE70124F4E7013C042C10D8DFE804F0B8
S1133F40140D030F160002224249D1F8203123F048
S1133F5003031343C1F82031BAE70322F4E74FF413
S1133F60D3613F4804F017FA0022EDE70122EBE7A2
S1133F70A1F10804082C33D8DFE804F00505320564
S1133F801C32323205004FF48032324B3549586EC0
S1133F9003F580535A660B6A43F001030B62C103B5
S1133FA05CBF314B5A664FF0E022136923F00403DF
S1133FB013618DE74FF48032264B2A49586E03F57E
S1133FC080535A660B6A23F001030B62C3035CBF80
S1133FD0254B5A664FF0E022136943F00403E7E7E8
S1133FE04FF4D861BDE870401D4804F0D4B90222F2
S1133FF01849D1F8403123F003031343C1F8403189
S113400066E70322F4E74FF4DC61154804F0C3F9D2
S11340100022EDE70122EBE702220E49D1F86031DC
S113402023F003031343C1F8603151E70322F4E79B
S113403040F202710A4804F0AEF90022EDE70122D1
S1134040EBE740F22B71064804F0A5F90021C5E620
S1134050018B0000008000500090005000E00050F0
S1134060B68A000000C0075000A00050013C0D2C8F
S113407016D8DFE804F01A151515151515071C1CBC
S11340801115151302232C49D1F8002222F007023E
S11340901343C1F800321BE70323F4E70423F2E7D8
S11340A040F24F71254804F076F90023EBE7012331
S11340B0E9E702222049D1F8003123F00303134336
S11340C0C1F8003104E70322F4E740F28F711B4882
S11340D004F061F90022EDE70122EBE70F2C0AD08E
S11340E0102C12D0012C04D040F2E171134804F0DA
S11340F052F9002200E001220F49D1F8203223F0C6
S113410003031343C1F82032E2E60222F4E7083C39
S1134110032C0AD80A4B195D074AD2F8403223F01F
S113412003030B43C2F84032D2E640F66801034869
S113413004F031F90021EFE700800050B68A000056
S1134140088B0000034A0179D36E23F030030B433C
S1134150D3667047004000502DE9F0410446264BD9
S1134160D3F88420D006FBD4D3F88430C3F381136E
S11341709C423ED0FEF730FC012C05460BD11F4B70
S1134180984204D940F261711D4804F004F90121F8
S1134190284604F03CF904F05AF94FF00072194B28
S11341A007465A66204604F062F94FF48063124EC3
S11341B0621E9340DFF848803367736E9A0103D41C
S11341C0D6F884309B060AD5384604F044F9022C0C
S11341D00FD12846BDE8F041002104F018B9D6F803
S11341E084309906E9D540F26F71404604F0D3F863
S11341F0E3E7BDE8F08100BF00400050005A6202CE
S11342000C8B00000060005007B518B90191FEF74F
S1134210E3FB0199064B1B7843B1064B984205D842
S1134220012003B05DF804EBFFF796BF0220F8E726
S1134230F9730020005A620238B54FF00042264B51
S113424026495A6601224A604AF6CD3103F50B230A
S11342505D6C1964154030BB9968C9070BD4002400
S113426001221F4B5A6015B11E4B1F4A1A6404F0F9
S1134270FFF8204638BD1A498A601C4AD96ACC071F
S113428005D4904201D10724EAE70130F6E79042D1
S1134290E5D1F8E70132DC6A14F0080406D08A425A
S11342A0F8D10724DFE700221049F4E78A42F8D066
S11342B020220B4B0B495A620122A3F580539A60CA
S11342C023460A4A486A800603D49342E9D001335C
S11342D0F8E79342C7D1E4E700900050005009503A
S11342E000600950004009503254FFFF40420F0063
S11342F038B54FF00042194B194C5A66012203F5A8
S11343000C235A604AF6CD33656C23644378154018
S113431093401343134AD363A368827823F074034E
S113432043EA0213C278002A14BF04220022134372
S1134330A3600279837943EA022323614279C37932
S113434043EA022363610078FFF776FF0DB1064B61
S1134350236404F08DF8012038BD00BF00900050A4
S113436000400950004000503254FFFF38B50D465C
S11343700446D8B101281CD002281CD0032803D13C
S11343800F23EB40DB0704D440F22D410B4804F02B
S113439002F83020012141F21003444304F1A04407
S11343A001FA05F504F57034E55038BD40F2FF1309
S11343B0E7E71F23E5E7FF23E3E700BF668A000082
S11343C038B50D460446D8B101281CD002281CD0AB
S11343D0032803D10F23EB40DB0704D440F2FE3162
S11343E00B4803F0D8FF3020012142F2100344436C
S11343F004F1A04401FA05F504F57034E55038BD24
S113440040F2FF13E7E71F23E5E7FF23E3E700BFDD
S1134410668A0000F8B50D4616461F46044660B38A
S113442001282DD002282DD0032803D10F22EA40E1
S1134430D30704D44FF4B0711B4803F0ACFF26B18A
S11344402946204607B3FFF791FF04EB4403072DE9
S11344504FF00F014FEA031319D8A80006FA00F22F
S113446081401248184404F004F8E6B9294620466D
S1134470AFB1BDE8F840FFF779BF40F2FF12D6E7CD
S11344801F22D4E7FF22D2E7FFF79AFFDDE7A5F169
S11344900800800006FA00F281400548E2E7BDE822
S11344A0F840FFF78DBFF8BD578B000004C00350E0
S11344B00CC00350F8B506460C4615469ABB40F2AC
S11344C00F11BDE8F8402F4803F065BF2E4B9E4204
S11344D001D12F203DE040F229112A4803F05BFF6F
S11344E03AE0032F42D0294B3CE06FEAC50505446E
S11344F02C44B4FBF0F4013C0AD540F27511214878
S113450003F049FF4FF4BB711E4803F044FF02E07F
S1134510B4F5007FF6D2B3689B0702D5002C08BF20
S11345200124B461F8BD03F00307836823F44073E6
S1134530836003F08CFFB26882EA072303F44073BC
S11345405340B36003F087FF34B9114B9E42BDD191
S11345502E20FFF755F80446B3689A07C1D5032FF8
S113456004D00C4B53F827309C4204D84FF4AF715D
S1134570044803F010FF084BD85D6843B5D140F2FE
S11345806F119EE7A38B000000800650FC8B000097
S11345900000015AF08B0000088C000038B50B4B6A
S11345A0044698420D4607D0094B984204D040F285
S11345B08F11084803F0EFFE043425B104F580544C
S11345C00123236038BD04F50054F9E70000015AC3
S11345D000800650A38B000038B5154B0446984262
S11345E00D4607D0134B984204D04FF4D2711248B1
S11345F003F0D1FE0023114A236404F50053DA6367
S11346006A7804F108037AB903F5805302221A6028
S11346102046D5E901122B7BFFF74CFF2046297871
S1134620BDE83840FFF7BABF03F50053EEE700BF1B
S11346300000015A00800650A38B0000FFFF1F00FA
S11346402DE9F843894B98420BD0894B984226D0E8
S1134650884840F2FB1103F09EFE6FF00300BDE8B2
S1134660F883854B402505264FF000084FF0030CD6
S1134670996800F50054C26B12F4C06F15D0970509
S11346800FD5FD225A7009221A700022026493F990
S11346900110012900D15A7093F90100DFE7774B2B
S11346A0E0E75605EFD5FE22ECE71F78082F00F26D
S11346B0D880DFE817F009001F0041004C006900B2
S11346C0740096009E00CD004C880A88E5060AD541
S11346D0120A02F0060242F0F0020121197042634C
S11346E0C1600120BBE702F0FE02A10748BF42F00F
S11346F00102F2E7170607D5802100F50052D163C5
S11347004FF608721A8062E05206EAD54A88E563D9
S1134710D70604D502221A700B784363E1E79207A7
S113472065D507221A701B7901EBC3010B89012B94
S1134730D7D10823C360D4E71706DDD45206D0D5F9
S11347404A88E563970752D583F800C093E74C88FD
S11347500A88E50643BF120A02F0060242F0F0029C
S113476002F0FE02640709D51C7942F0010201EB54
S1134770C4010989012904BF0821C16004211970F9
S11347800123C3604263ACE71706B5D45706A8D526
S11347904A88E56352072AD507221A70A1E71A79D5
S11347A05F8801EBC20EBEF80890B94511D80132FA
S11347B0D2B21A714F88A3F8028017F0040FC3D144
S11347C0FF0702D4012A7FF656AF08221A7002238B
S11347D0B0E7DEF80420791C5980D25D42630622DA
S11347E0DBE7170688D457067FF57BAFE5631E70B9
S11347F041E794067FF575AF456A214C46691A79FD
S11348003440B4F5003F04BF466A4FF4005601EB50
S1134810C20100F500540A8908BFE6632026E66356
S11348205C88A24281BF4968661C5E800D55598828
S11348308A42CAD90424012AC46004D9013A9142A3
S113484001D10822C2601A78092A3FF41EAF48E752
S1134850D2057FF546AF4FF4807100F50052D16365
S113486011E74FF609321A800FE700BF0000015A22
S113487000800650A38B00001863002024630020EE
S11348802000020038B5284B044698420D4644D017
S1134890264B98423ED040F25E31254803F07BFD22
S11348A0002D3DD140F25F31214803F074FD1E4BD1
S11348B09C4228D11F4B2269D00744BF2022E260CA
S11348C06A88910701D5298951B3520701D52A8AEB
S11348D032B34FF480721A6000229D601A71C023B3
S11348E0E3606369DB0513D4202204F50053DA6323
S11348F0114A2046DA63236C43F4FC632364BDE865
S11349003840FFF79DBE094B9C4209D10B4BD2E7BF
S1134910636AE6E70029F9D1C4E70029CAD1C1E7EF
S11349206FF0030038BD00BF0000015A008006503C
S1134930A38B000018630020FFFF1F0024630020E6
S113494038B5134B044698420D4604D040F28A21F0
S1134950104803F020FD012104F58053626859607A
S1134960AB7829881B0403F480330B43E9780029CE
S113497014BF4FF4003100210B43C4F89830D3071F
S113498004D42046BDE8384003F085BD38BD00BFDF
S11349900040005A0C8C000070B5254B0446984228
S11349A00E46154604D040F25221224803F0F3FC8F
S11349B0204603F070FD3378204603F00702737835
S11349C0002BB37818BF08214FEA031303F0300318
S11349D043EA0203F27808BF0021002A14BF4FF40F
S11349E0807200220B4313432367E26A337922F473
S11349F08B321B0222F4807203F4E0631343727956
S1134A002946120302F480521343B279002A14BFD8
S1134A104FF4803200221343E362FFF791FF012237
S1134A2004F580535A60F37903B1E26070BD00BFAE
S1134A300040005A0C8C0000F8B52E4B04469842F6
S1134A4004D040F207312C4803F0A5FC012204F500
S1134A5080535A60294B2A4AE36063691340FCD1AE
S1134A60A361C4F89830636913F4401FFBD16369F0
S1134A70DA052DD4A36F5BBB63699B052AD4D4F8F4
S1134A8088203ABB2046E36FD4F88C3003F003FD52
S1134A9030231849A2608C420CBF022100212261FC
S1134AA042F26005E262174622622367C4F880304E
S1134AB01346144E8B4210D100210E4B9C4201D15F
S1134AC0102A11D1104B04F500546362A362F8BD9F
S1134AD0636FCCE7D4F88430CEE704EB031085642D
S1134AE0013306654765E5E702F1280044F8201024
S1134AF00132E3E70040005A0C8C0000120002006F
S1134B005200010000C002808F330F8010B5144B97
S1134B100C46984204D040F25D31124803F03BFC4D
S1134B2074B92A20FEF76CFD0446B0B10E4B9842CE
S1134B3006D90B4B9B68C3F302730133B0FBF3F448
S1134B400A4804F5742404F23F24B4FBF0F4601E14
S1134B507F2828BF7F20C0B210BD0124F0E700BF2A
S1134B600040005A0C8C0000005A620240420F00C0
S1134B7038B5134B0C469842154604D04FF4667171
S1134B80104803F008FC24B940F299310D4803F0B1
S1134B9002FC0D498C4228BF0C461DB92A20FEF7A1
S1134BA02FFD0546621E1544B5FBF4F0A54228BF4F
S1134BB000F1FF30032828BF0320C0B238BD00BF76
S1134BC00040005A0C8C0000005A6202F8B51F46DF
S1134BD0174B0E469842144604D040F2D231154881
S1134BE003F0D9FB26B940F2D331124803F0D3FBCA
S1134BF0114A124D002F08BF1546B54228BF35464D
S1134C001CB92A20FEF7FCFC04469DF8182040F24B
S1134C10FF300132B4FBF2F46A1E1444B4FBF5F322
S1134C20AC4228BF03F1FF33984228BF1846F8BDB1
S1134C300040005A0C8C000080969800404B4C00B9
S1134C402DE9F04F2DED048B87B0C64B04469842F6
S1134C500F46154603D0D921C34803F09CFBDFF867
S1134C603083002241462046FFF782FF7B79984239
S1134C7038BF1846C6B2204603F00DFC387950B947
S1134C802A20FEF7BDFC4045014628BFB0FBF6F1E3
S1134C902046FFF73BFFFB7832071B0102F0E0429E
S1134CA003F03003134300043A7800F4FE00034396
S1134CB00AB143F002037A780AB143F00403BA78E4
S1134CC00AB143F008034FF00008A360FB883A8957
S1134CD023617B89DFF88C9243EA024323624C45CB
S1134CE002D1B8F1020F08D1012304F580546360A6
S1134CF007B0BDEC048BBDE8F08F002295F800B03E
S1134D009A489B49AF68934518BF01465B4695484E
S1134D100096FFF75BFF04EB081CDCF848200BF05F
S1134D20030E22F0435222F41D1222F4405222F0C8
S1134D301F024EEA020295F801E01FFA87FA4FEAD1
S1134D408E0E0EF01C0E42EA0E0EAA7882455746CD
S1134D504FEA023238BF0746E87802F4E0424EEAEE
S1134D6002024FEA004E0EF4E02E42EA0E0295F8DB
S1134D7010E0804B4FEA4E5E0EF4600E42EA0E02E3
S1134D8095F804E04FEA08114FEA0E7E0EF0405EFB
S1134D9042EA0E02CCF84820DCF84820C2F3023282
S1134DA0013A042A00F28980DFE802F0878787034A
S1134DB00300D3F8842108F1050ABBF1000F40F089
S1134DC0CB8009EB01039A6CC2F30232531E012B10
S1134DD0684B75D8DFED687AD3F8802192B24944E4
S1134DE0896C22F4C043C1F3820E01210EF1010C3F
S1134DF001FA0CF107EE101A4FEA834B1304B8EED4
S1134E00C79AF6EE008A5B4B48BF4BF0004BBEF1ED
S1134E10000F73D1D3F88C110BB208EE103AB8EE30
S1134E20C88A37EE888A00287DD105A8039200F04D
S1134E30F9F9DFED527A68EE277A039ADFED506ACA
S1134E4086EE897ADFED4F6A27EE267AF1EE006A64
S1134E50BBF1004F07EEA67A0BD0DFED4B6A07EEED
S1134E60902A37EE266AFAEEE87AB0EE667A17EE02
S1134E70867AB5EEC07AF1EE10FACABFB1EE477A7F
S1134E8038EEC77A37EE687AFDEEC77A17EE902AC5
S1134E90B2F5003F56DB6FEA5B436FEA43434FEAE8
S1134EA00A1249F80230C7F3090709EB0A1ACAF8CB
S1134EB0047008F10108143511E7D3F880217AE76A
S1134EC0032A0AD1D3F88021D3F88C31120C1B1495
S1134ED007EE903AF8EEE77A81E7042AD3F88421C2
S1134EE00BBFD3F88C31D3F88C311B141B1407BFC0
S1134EF092B25B00120C03EB4303E9E7D3F8901181
S1134F0009B207EE101AB8EEC77A77EE677A29EE7F
S1134F10287AD3F8881187EE878A0BB207EE903A85
S1134F20F8EEE77A7DE7D5ED037ADFED186AF8EE5F
S1134F30677A87EEA67AF7EE046AC6EE877A67EE9A
S1134F40887A7BE712F5003FAABFC2F311024BF443
S1134F50003342EA0B03A2E740F2DF11024803F0F8
S1134F601AFAA0E70040005A0C8C0000404B4C0099
S1134F70809698000080E00F000000003D3B843FD5
S1134F8000008043000020440000004900007A44EF
S1134F90005A620210B54FF400120B4BC3F8802084
S1134FA0BFF34F8FBFF36F8F0024FF22074B2146BF
S1134FB05C6520209A625C60FEF7F8FA2146BDE841
S1134FC010402120FEF7F2BA00E100E00000045096
S1134FD038B5072804460D4603DD7721094803F058
S1134FE0DAF91F2C03D99121074803F0D4F9074BB0
S1134FF0074A0120002D18BF134600FA04F41C6070
S113500038BD00BF588C0000A48C00004010045030
S11350104020045010B5044618B991211F4803F0EC
S1135020BAF923781B0613F0604F03D092211B4872
S113503003F0B1F9E3780F2B03D9A321174803F048
S1135040AAF901212020FEF7B1FA01212120FEF75F
S1135050ADFA0122124B5A60227812069A606178E6
S1135060A27842EA01429A61FF229A6200229A637C
S11350701A644FF000425A654FF0FF324FF40011AA
S113508003F500531A65074AC2F88011E3781B013F
S1135090DBB282F81533116010BD00BF588C0000DC
S11350A00000045000E100E02DE9F0410126C3B204
S11350B0072805460C46904606FA03F603DDEC2164
S11350C0354803F068F91CB9ED21334803F063F95E
S11350D0236823F47C1323F00F031BB1F0212E4823
S11350E003F059F9A37A1B0413F47C0F04D040F2A3
S11350F00911294803F04FF9E37A1B0513F07E6F79
S113510004D040F20B11244803F045F9237B5B05DE
S113511013F0FE5F04D040F20D111F4803F03BF979
S113512030201E4A637B166521681D4F02F500522C
S113513042F8251000FB05752B66E37AA27A1B055D
S113514043EA0243227B43EA425328F00302EB651D
S11351502A6703F083F97B6D33437B65237A13B1AC
S11351603B6C33433B64637A13B1BB6B3343BB6324
S11351702279A37943EA0243084A93616179E37986
S113518043EA014307498B61054B56639E64BDE8BE
S1135190F04103F069B900BF588C000000200450AE
S11351A0000004500010045010B50124C3B20728B5
S11351B004FA03F404DD40F29711074803F0EBF816
S11351C003F04CF9054B5A6D22EA04025A659C62BD
S11351D0BDE8104003F048B9588C000000000450AA
S11351E010B50124C3B2072804FA03F404DD40F225
S11351F0B5110A4803F0CFF803F030F9084BDA6A26
S1135200224209D15B6B34EA03030CBF012400245E
S113521003F02AF9204610BD0024F9E7588C000059
S1135220000004504FF48032064B5A6603F5E6231F
S11352305B69C3F38512827003F03F021B0B42705B
S11352400370704700900050024B1868C0F3074089
S1135250704700BF0080E00F2DE9F04180460E4604
S11352601F46154622B94FF4A171314803F093F853
S113527026B94FF42070FEF7C3F90646402F2AD012
S113528009D8A7B1202F1CD040F28911BDE8F04104
S1135290274803F080B8602FF6D1B5EB960F04D9F8
S11352A040F28311224803F076F804241DE0B5EBA4
S11352B0161F04D94FF4BA711D4803F06CF810247A
S11352C013E0B5EBD60F04D940F27911184803F076
S11352D062F8082409E00624B6FBF4F3AB4204D2D6
S11352E04FF4BF71124803F056F86C43610801EBA8
S11352F04616B6FBF4F40F4E203CB6EBC40F4FEA4F
S1135300C40504D24FF4D071094803F044F8D8F826
S11353100830354023F06003C8F80830D8F8083066
S11353201F43C8F80870C8F81C50BDE8F08100BFDE
S1135330EF8C0000F8FF7F0070B506460C4615465A
S113534022B940F28E210C4803F025F824B94FF419
S11353502070FEF755F904466D00013CB4FBF5F4EA
S1135360064B250213EA042304D040F2B321024879
S113537003F011F8F56170BDEF8C0000070080FFA9
S113538038B50E4B044698420D4608D003F58043C9
S1135390984204D04FF43371094802F0FCFF012213
S11353A004F580535A60EB43934003F00A036361AE
S11353B0656115B904F50054626038BD00C005503C
S11353C0EF8C000010B5194B0446984208D003F541
S11353D08043984204D040F24241154802F0DBFF7A
S11353E0012204F580535A6040F6AA6341F2050293
S11353F0636100230F49A360E365E26004F5005292
S11354002361E361E36491640849A3658C4202D09B
S11354100948844207D18C42236502D0064B9C4242
S113542001D1002363650123536010BD00C0055002
S1135430EF8C0000FFFF01000000065070B5444BE4
S1135440044698420D4608D003F58043984204D0A0
S113545040F2FD213F4802F09EFF2046FFF7B2FFD5
S1135460012304F580567360AB7C1BB1A36843F041
S11354708043A360EB7C5BB1354A2B7D944245D1DC
S1135480A2F51032C2F88C31E36D43F08003E3657A
S11354902A8A6B7B20461343EA891343E3602B7B00
S11354A0D5E90112FFF7D8FE6B7D1BB1A36843F465
S11354B08033A360AB7D1BB1A36843F40043A360B6
S11354C0EB7D2A7E1B07120502F4E00203F0E043A1
S11354D01343A365697E1E4A8B1E012B1E4B1FD8E6
S11354E094421BD002F5804294420CBF01224FF03B
S11354F0FF3203EB4213022041F21C62032998504D
S113550020D10423F3652B78636170BD134A944260
S113551004BFA2F52032C2F89C31B5E70022E8E7C7
S113552094420DD00D4A94420CBF01224FF0FF3239
S113553003EB4213022042F21C6201299850DFE778
S11355400022F5E7042204F50053DA65DBE700BF27
S113555000C00550EF8C000000C00350000006504E
S113556038B5334B044698420D4608D003F58043C2
S1135570984204D040F269312E4802F00CFF2046D4
S1135580FFF720FF0122A97B04F580535A602A8A81
S1135590A368002914BF4FF48061002142F0010286
S11355A013432A7D0B43002A14BF4FF000520022FC
S11355B0A360A3681343A360AB7C5BB11C4AEB7C80
S11355C094422DD1A2F51032C2F88C31E36D43F030
S11355D08003E3652B7B2046D5E9011243F4805315
S11355E0E360FFF7A9FE6B7B0BB1102363616B7D56
S11355F01BB1A36843F48033A360AB7D1BB1A368E4
S113560043F40043A360EB7D2A7E1B07120503F0DD
S1135610E04302F4E0021343A3652B78636138BDD1
S1135620054A944204BFA2F52032C2F89C31CDE76A
S113563000C00550EF8C00000000065007B56B4613
S1135640054A1068516803C36846FEF751FE0020FE
S113565003B05DF804FB00BF3C8D000013B50024CB
S1135660064A6846536F43F00103536700948DF86C
S11356700440FEF767FD204602B010BD0040005014
S113568030B58BB06C46174D0FCD0FC40FCD0FC482
S113569095E8030084E80300134BD3F84C2112036C
S11356A017D4D3F85041E4B28DF81940FEF734FA18
S11356B0204480F308008DF818000C48FDF7C2F967
S11356C06846FEF737F93220FEF794FA00200BB053
S11356D030BD074B1C884FF6FF739C4208BF7924EA
S11356E0E2E700BF448D00000080E00F00F04902B3
S11356F00001E00F30B587B0084D01AC0FCD0FC4E9
S11357002B6801A823602A238DF80530FEF70AFAD6
S11357106420FEF769FA002007B030BD6C8D0000EC
S113572010B56FF0040250210A480B4C12F0800FA0
S1135730D3B21BBF03F00F03043BA3181B1802F1E1
S113574001020CBF83F800131976402AEED1002021
S113575010BD00BF00ED00E000E100E010B504461C
S113576002F075FE024B1C6002F075FE002010BDB5
S11357703063002010B502F06AFE034B1C6802F08F
S11357806AFE204610BD00BF3063002038B53022C9
S1135790037A0446534303F1A04303F58023DD6EEB
S11357A0D0E9032313449D4201D8AA4204D94FF4FB
S11357B03E71054802F0EFFDD4E9030303449D4222
S11357C018BF284638BD00BF808D000030B587B0B3
S11357D0144605461046FFF7D9FF63690246834223
S11357E03CBFD4E903315B181B1AABB112492846FC
S11357F003910021CDE90131012304940093D4E9FC
S1135800001302F0E2FD20B14FF434710B4802F0B2
S1135810C2FD002007B030BD0122627694F82D202D
S1135820002AF6D084F835301321E36920469847DE
S11358302046636A9847ECE7CD570000808D00004E
S11358402DE9F04788B0044688461746994602F089
S113585005FE8246002F00F0AB80237E03F0FF029A
S1135860002B00F0DE802046FFF790FF63690546B9
S1135870984206D1637E23B940F27F316A4802F030
S11358808AFD6669B5429CBFD4E90352AD18AD1BCD
S1135890BD4228BF3D4602F0E1FD94F82D30064696
S11358A0002B40F096802A464046616903F02CF8AC
S11358B063692F462B4463612CE06069037803F02D
S11358C0FD01112940F08280216B884205D1A3F1AA
S11358D011014B424B4184F83430013F6369216B21
S11358E001328B4203F1010308BF236363619542D4
S11358F0E3D1D4E90323216B1344994208BF226303
S1135900216B8A4201D88B4204D84FF46D7146480A
S113591002F041FDD4E9032361691344994208BFAD
S1135920626161698A4201D88B4204D84FF4717173
S11359303D4802F030FD0023207A6376FDF77EFBBC
S113594020B140F21131384802F025FD2046FFF71E
S11359501DFF636983423FD10023E568237694F8F1
S11359602D30656103B125632046636A98472F4B48
S11359702A46039300230293236921680193012398
S1135980207A00930494636802F01FFD20B140F272
S11359902D31254802F0FFFC207AFDF76FFB20B182
S11359A040F25131204802F0F6FC304602F05CFD32
S11359B05046C9F8007002F057FDD9F80030002BAA
S11359C00CBF1B20002008B0BDE8F08708F8013B9D
S11359D084E72F4600228AE70123207A23760DF1FB
S11359E01E01FDF7B3FB20B14FF450710E4802F0D5
S11359F0D2FC9DF81E30002BCED0207A0DF11F0171
S1135A00FDF77CFB20B140F24631074802F0C3FCAD
S1135A109DF81F100029BFD12246207AFFF7D6FE39
S1135A20BAE71746C4E700BF808D0000CD570000D9
S1135A3070B504460568FFF79DFE844202D100203C
S1135A40FFF78CFE95F93630002B11DB012203F0B1
S1135A501F015B099B0003F160438A4003F5614326
S1135A60C3F88021C3F88020BFF34F8FBFF36F8F3B
S1135A70287AFDF723FB20B14FF4ED71104802F0B2
S1135A808AFC287AFDF75AFA20B14FF4EF710C48DA
S1135A9002F081FCFDF730FA38B10A4B984204D089
S1135AA04FF4F171064802F076FC00232846C4E95D
S1135AB00033C4E90433A360AB6ABDE870401847FF
S1135AC0808D0000058000F02DE9F84304460D4662
S1135AD090F82C80DFF8AC908E18B54228D094F85A
S1135AE02D3083B102F0BAFC237E07461BBB226B28
S1135AF063699A4204D040F2F911484602F04BFC23
S1135B00384602F0B1FC94F83430002BE5D0B8F1FB
S1135B10000F06D02B780A2B03D10D212046E36910
S1135B2098472046E36915F8011B98470028D4D00C
S1135B300020BDE8F8832046FFF728FEE16801381D
S1135B40884238BF2069D4F830C03CBF00F1FF3030
S1135B50401803469C450BD013F80129112A01D0A3
S1135B60132A07D1A2F111035A425A4184F834206E
S1135B702063C5E7994282BF236903F1FF335B18B1
S1135B80E8E700BF808D0000F0B587B00C460646FC
S1135B9015460021382220461F4602F0C2FE95E831
S1135BA0030000232A692376EB6884E80300C4E930
S1135BB004232A7DE36084F82C20AA7D2363012337
S1135BC084F8343084F835300C9B84F82D2023621B
S1135BD00D9BE76163620E9BA3622B7A84F83630D7
S1135BE0204B34607360204BB360204B3361204BF7
S1135BF07361204BF360FDF7C7F930B11E4B984237
S1135C0003D01024204607B0F0BD002104F10800A1
S1135C10FDF742F90028F4D10127184B0494CDE98B
S1135C2002032369009701936368E2682168207A7C
S1135C3002F0CBFB04460028E3D195F90830002B91
S1135C400BDB03F01F025B099B0003F160439740E9
S1135C5003F56143C3F880711F603046FFF77EFD92
S1135C60D0E700BFC95A000041580000F184000089
S1135C70F7840000315A0000038000F0CD57000083
S1135C802DE9F04186B01C46564B01270293564B32
S1135C900C9D01930023904600930A46CDE90377B7
S1135CA02946524BFFF770FF0646002875D123683A
S1135CB03946AB6363683A20EB63637A85F8413015
S1135CC0237A85F84030E37A85F84330A37A85F85F
S1135CD04230637B85F84530237B85F84430E37B91
S1135CE085F84730A37B85F84630FDF75FFC3B46DB
